{
  "_format": "hh-sol-artifact-1",
  "contractName": "JazzERC20",
  "sourceName": "contracts/JazzERC20.sol",
  "abi": [
    {
      "inputs": [
        {
          "internalType": "string",
          "name": "__name",
          "type": "string"
        },
        {
          "internalType": "string",
          "name": "__symbol",
          "type": "string"
        },
        {
          "internalType": "uint8",
          "name": "__decimals",
          "type": "uint8"
        },
        {
          "internalType": "uint256",
          "name": "__totalSupply",
          "type": "uint256"
        }
      ],
      "stateMutability": "nonpayable",
      "type": "constructor"
    },
    {
      "anonymous": false,
      "inputs": [
        {
          "indexed": true,
          "internalType": "address",
          "name": "owner",
          "type": "address"
        },
        {
          "indexed": true,
          "internalType": "address",
          "name": "spender",
          "type": "address"
        },
        {
          "indexed": false,
          "internalType": "uint256",
          "name": "value",
          "type": "uint256"
        }
      ],
      "name": "Approval",
      "type": "event"
    },
    {
      "anonymous": false,
      "inputs": [
        {
          "indexed": true,
          "internalType": "address",
          "name": "account",
          "type": "address"
        },
        {
          "indexed": false,
          "internalType": "bool",
          "name": "isAdmin",
          "type": "bool"
        }
      ],
      "name": "RoleUpdate",
      "type": "event"
    },
    {
      "anonymous": false,
      "inputs": [
        {
          "indexed": true,
          "internalType": "address",
          "name": "from",
          "type": "address"
        },
        {
          "indexed": true,
          "internalType": "address",
          "name": "to",
          "type": "address"
        },
        {
          "indexed": false,
          "internalType": "uint256",
          "name": "value",
          "type": "uint256"
        }
      ],
      "name": "Transfer",
      "type": "event"
    },
    {
      "inputs": [
        {
          "internalType": "address",
          "name": "owner",
          "type": "address"
        },
        {
          "internalType": "address",
          "name": "spender",
          "type": "address"
        }
      ],
      "name": "allowance",
      "outputs": [
        {
          "internalType": "uint256",
          "name": "",
          "type": "uint256"
        }
      ],
      "stateMutability": "view",
      "type": "function"
    },
    {
      "inputs": [
        {
          "internalType": "address",
          "name": "spender",
          "type": "address"
        },
        {
          "internalType": "uint256",
          "name": "amount",
          "type": "uint256"
        }
      ],
      "name": "approve",
      "outputs": [
        {
          "internalType": "bool",
          "name": "",
          "type": "bool"
        }
      ],
      "stateMutability": "nonpayable",
      "type": "function"
    },
    {
      "inputs": [
        {
          "internalType": "address",
          "name": "account",
          "type": "address"
        }
      ],
      "name": "balanceOf",
      "outputs": [
        {
          "internalType": "uint256",
          "name": "",
          "type": "uint256"
        }
      ],
      "stateMutability": "view",
      "type": "function"
    },
    {
      "inputs": [
        {
          "internalType": "address",
          "name": "account",
          "type": "address"
        },
        {
          "internalType": "uint256",
          "name": "amount",
          "type": "uint256"
        }
      ],
      "name": "burn",
      "outputs": [
        {
          "internalType": "bool",
          "name": "",
          "type": "bool"
        }
      ],
      "stateMutability": "nonpayable",
      "type": "function"
    },
    {
      "inputs": [],
      "name": "decimals",
      "outputs": [
        {
          "internalType": "uint8",
          "name": "",
          "type": "uint8"
        }
      ],
      "stateMutability": "view",
      "type": "function"
    },
    {
      "inputs": [
        {
          "internalType": "address",
          "name": "account",
          "type": "address"
        },
        {
          "internalType": "uint256",
          "name": "amount",
          "type": "uint256"
        }
      ],
      "name": "mint",
      "outputs": [
        {
          "internalType": "bool",
          "name": "",
          "type": "bool"
        }
      ],
      "stateMutability": "nonpayable",
      "type": "function"
    },
    {
      "inputs": [],
      "name": "name",
      "outputs": [
        {
          "internalType": "string",
          "name": "",
          "type": "string"
        }
      ],
      "stateMutability": "view",
      "type": "function"
    },
    {
      "inputs": [
        {
          "internalType": "address",
          "name": "account",
          "type": "address"
        },
        {
          "internalType": "bool",
          "name": "isAdmin",
          "type": "bool"
        }
      ],
      "name": "setRole",
      "outputs": [
        {
          "internalType": "bool",
          "name": "",
          "type": "bool"
        }
      ],
      "stateMutability": "nonpayable",
      "type": "function"
    },
    {
      "inputs": [],
      "name": "symbol",
      "outputs": [
        {
          "internalType": "string",
          "name": "",
          "type": "string"
        }
      ],
      "stateMutability": "view",
      "type": "function"
    },
    {
      "inputs": [],
      "name": "totalSupply",
      "outputs": [
        {
          "internalType": "uint256",
          "name": "",
          "type": "uint256"
        }
      ],
      "stateMutability": "view",
      "type": "function"
    },
    {
      "inputs": [
        {
          "internalType": "address",
          "name": "recipient",
          "type": "address"
        },
        {
          "internalType": "uint256",
          "name": "amount",
          "type": "uint256"
        }
      ],
      "name": "transfer",
      "outputs": [
        {
          "internalType": "bool",
          "name": "",
          "type": "bool"
        }
      ],
      "stateMutability": "nonpayable",
      "type": "function"
    },
    {
      "inputs": [
        {
          "internalType": "address",
          "name": "sender",
          "type": "address"
        },
        {
          "internalType": "address",
          "name": "recipient",
          "type": "address"
        },
        {
          "internalType": "uint256",
          "name": "amount",
          "type": "uint256"
        }
      ],
      "name": "transferFrom",
      "outputs": [
        {
          "internalType": "bool",
          "name": "",
          "type": "bool"
        }
      ],
      "stateMutability": "nonpayable",
      "type": "function"
    }
  ],
  "bytecode": "0x608060405234801561001057600080fd5b50604051612368380380612368833981810160405281019061003291906102fd565b6001600660003373ffffffffffffffffffffffffffffffffffffffff1673ffffffffffffffffffffffffffffffffffffffff16815260200190815260200160002060006101000a81548160ff021916908315150217905550836000908161009991906105b3565b5082600190816100a991906105b3565b5081600260006101000a81548160ff021916908360ff1602179055508060038190555080600460003373ffffffffffffffffffffffffffffffffffffffff1673ffffffffffffffffffffffffffffffffffffffff1681526020019081526020016000208190555050505050610685565b6000604051905090565b600080fd5b600080fd5b600080fd5b600080fd5b6000601f19601f8301169050919050565b7f4e487b7100000000000000000000000000000000000000000000000000000000600052604160045260246000fd5b61018082610137565b810181811067ffffffffffffffff8211171561019f5761019e610148565b5b80604052505050565b60006101b2610119565b90506101be8282610177565b919050565b600067ffffffffffffffff8211156101de576101dd610148565b5b6101e782610137565b9050602081019050919050565b60005b838110156102125780820151818401526020810190506101f7565b60008484015250505050565b600061023161022c846101c3565b6101a8565b90508281526020810184848401111561024d5761024c610132565b5b6102588482856101f4565b509392505050565b600082601f8301126102755761027461012d565b5b815161028584826020860161021e565b91505092915050565b600060ff82169050919050565b6102a48161028e565b81146102af57600080fd5b50565b6000815190506102c18161029b565b92915050565b6000819050919050565b6102da816102c7565b81146102e557600080fd5b50565b6000815190506102f7816102d1565b92915050565b6000806000806080858703121561031757610316610123565b5b600085015167ffffffffffffffff81111561033557610334610128565b5b61034187828801610260565b945050602085015167ffffffffffffffff81111561036257610361610128565b5b61036e87828801610260565b935050604061037f878288016102b2565b9250506060610390878288016102e8565b91505092959194509250565b600081519050919050565b7f4e487b7100000000000000000000000000000000000000000000000000000000600052602260045260246000fd5b600060028204905060018216806103ee57607f821691505b602082108103610401576104006103a7565b5b50919050565b60008190508160005260206000209050919050565b60006020601f8301049050919050565b600082821b905092915050565b6000600883026104697fffffffffffffffffffffffffffffffffffffffffffffffffffffffffffffffff8261042c565b610473868361042c565b95508019841693508086168417925050509392505050565b6000819050919050565b60006104b06104ab6104a6846102c7565b61048b565b6102c7565b9050919050565b6000819050919050565b6104ca83610495565b6104de6104d6826104b7565b848454610439565b825550505050565b600090565b6104f36104e6565b6104fe8184846104c1565b505050565b5b81811015610522576105176000826104eb565b600181019050610504565b5050565b601f8211156105675761053881610407565b6105418461041c565b81016020851015610550578190505b61056461055c8561041c565b830182610503565b50505b505050565b600082821c905092915050565b600061058a6000198460080261056c565b1980831691505092915050565b60006105a38383610579565b9150826002028217905092915050565b6105bc8261039c565b67ffffffffffffffff8111156105d5576105d4610148565b5b6105df82546103d6565b6105ea828285610526565b600060209050601f83116001811461061d576000841561060b578287015190505b6106158582610597565b86555061067d565b601f19841661062b86610407565b60005b828110156106535784890151825560018201915060208501945060208101905061062e565b86831015610670578489015161066c601f891682610579565b8355505b6001600288020188555050505b505050505050565b611cd4806106946000396000f3fe608060405234801561001057600080fd5b50600436106100b45760003560e01c806340c10f191161007157806340c10f19146101a357806370a08231146101d357806395d89b41146102035780639dc29fac14610221578063a9059cbb14610251578063dd62ed3e14610281576100b4565b806306fdde03146100b9578063095ea7b3146100d757806318160ddd1461010757806323b872dd14610125578063313ce567146101555780633527c83e14610173575b600080fd5b6100c16102b1565b6040516100ce9190611263565b60405180910390f35b6100f160048036038101906100ec919061131e565b610343565b6040516100fe9190611379565b60405180910390f35b61010f6104a3565b60405161011c91906113a3565b60405180910390f35b61013f600480360381019061013a91906113be565b6104ad565b60405161014c9190611379565b60405180910390f35b61015d61080d565b60405161016a919061142d565b60405180910390f35b61018d60048036038101906101889190611474565b610824565b60405161019a9190611379565b60405180910390f35b6101bd60048036038101906101b8919061131e565b6109d7565b6040516101ca9190611379565b60405180910390f35b6101ed60048036038101906101e891906114b4565b610bba565b6040516101fa91906113a3565b60405180910390f35b61020b610c03565b6040516102189190611263565b60405180910390f35b61023b6004803603810190610236919061131e565b610c95565b6040516102489190611379565b60405180910390f35b61026b6004803603810190610266919061131e565b610f3f565b6040516102789190611379565b60405180910390f35b61029b600480360381019061029691906114e1565b61114c565b6040516102a891906113a3565b60405180910390f35b6060600080546102c090611550565b80601f01602080910402602001604051908101604052809291908181526020018280546102ec90611550565b80156103395780601f1061030e57610100808354040283529160200191610339565b820191906000526020600020905b81548152906001019060200180831161031c57829003601f168201915b5050505050905090565b60008073ffffffffffffffffffffffffffffffffffffffff168373ffffffffffffffffffffffffffffffffffffffff16036103b3576040517f08c379a00000000000000000000000000000000000000000000000000000000081526004016103aa906115f3565b60405180910390fd5b81600560003373ffffffffffffffffffffffffffffffffffffffff1673ffffffffffffffffffffffffffffffffffffffff16815260200190815260200160002060008573ffffffffffffffffffffffffffffffffffffffff1673ffffffffffffffffffffffffffffffffffffffff168152602001908152602001600020819055508273ffffffffffffffffffffffffffffffffffffffff163373ffffffffffffffffffffffffffffffffffffffff167f8c5be1e5ebec7d5bd14f71427d1e84f3dd0314c0f7b2291e5b200ac8c7c3b9258460405161049191906113a3565b60405180910390a36001905092915050565b6000600354905090565b60008073ffffffffffffffffffffffffffffffffffffffff168373ffffffffffffffffffffffffffffffffffffffff160361051d576040517f08c379a000000000000000000000000000000000000000000000000000000000815260040161051490611685565b60405180910390fd5b81600560008673ffffffffffffffffffffffffffffffffffffffff1673ffffffffffffffffffffffffffffffffffffffff16815260200190815260200160002060003373ffffffffffffffffffffffffffffffffffffffff1673ffffffffffffffffffffffffffffffffffffffff1681526020019081526020016000205410156105dc576040517f08c379a00000000000000000000000000000000000000000000000000000000081526004016105d390611717565b60405180910390fd5b81600460008673ffffffffffffffffffffffffffffffffffffffff1673ffffffffffffffffffffffffffffffffffffffff16815260200190815260200160002054101561065e576040517f08c379a000000000000000000000000000000000000000000000000000000000815260040161065590611783565b60405180910390fd5b81600460008673ffffffffffffffffffffffffffffffffffffffff1673ffffffffffffffffffffffffffffffffffffffff16815260200190815260200160002060008282546106ad91906117d2565b9250508190555081600460008573ffffffffffffffffffffffffffffffffffffffff1673ffffffffffffffffffffffffffffffffffffffff16815260200190815260200160002060008282546107039190611806565b9250508190555081600560008673ffffffffffffffffffffffffffffffffffffffff1673ffffffffffffffffffffffffffffffffffffffff16815260200190815260200160002060003373ffffffffffffffffffffffffffffffffffffffff1673ffffffffffffffffffffffffffffffffffffffff168152602001908152602001600020600082825461079691906117d2565b925050819055508273ffffffffffffffffffffffffffffffffffffffff168473ffffffffffffffffffffffffffffffffffffffff167fddf252ad1be2c89b69c2b068fc378daa952ba7f163c4a11628f55a4df523b3ef846040516107fa91906113a3565b60405180910390a3600190509392505050565b6000600260009054906101000a900460ff16905090565b600060011515600660003373ffffffffffffffffffffffffffffffffffffffff1673ffffffffffffffffffffffffffffffffffffffff16815260200190815260200160002060009054906101000a900460ff161515146108b9576040517f08c379a00000000000000000000000000000000000000000000000000000000081526004016108b090611886565b60405180910390fd5b600073ffffffffffffffffffffffffffffffffffffffff168373ffffffffffffffffffffffffffffffffffffffff1603610928576040517f08c379a000000000000000000000000000000000000000000000000000000000815260040161091f90611918565b60405180910390fd5b81600660008573ffffffffffffffffffffffffffffffffffffffff1673ffffffffffffffffffffffffffffffffffffffff16815260200190815260200160002060006101000a81548160ff0219169083151502179055508273ffffffffffffffffffffffffffffffffffffffff167fa2fc0803d3ba0e6bf6ff8cb60207936bb3111954652be9c7a57122f4457283fe836040516109c59190611379565b60405180910390a26001905092915050565b600060011515600660003373ffffffffffffffffffffffffffffffffffffffff1673ffffffffffffffffffffffffffffffffffffffff16815260200190815260200160002060009054906101000a900460ff16151514610a6c576040517f08c379a0000000000000000000000000000000000000000000000000000000008152600401610a6390611984565b60405180910390fd5b600073ffffffffffffffffffffffffffffffffffffffff168373ffffffffffffffffffffffffffffffffffffffff1603610adb576040517f08c379a0000000000000000000000000000000000000000000000000000000008152600401610ad290611a16565b60405180910390fd5b81600460008573ffffffffffffffffffffffffffffffffffffffff1673ffffffffffffffffffffffffffffffffffffffff1681526020019081526020016000206000828254610b2a9190611806565b925050819055508160036000828254610b439190611806565b925050819055508273ffffffffffffffffffffffffffffffffffffffff16600073ffffffffffffffffffffffffffffffffffffffff167fddf252ad1be2c89b69c2b068fc378daa952ba7f163c4a11628f55a4df523b3ef84604051610ba891906113a3565b60405180910390a36001905092915050565b6000600460008373ffffffffffffffffffffffffffffffffffffffff1673ffffffffffffffffffffffffffffffffffffffff168152602001908152602001600020549050919050565b606060018054610c1290611550565b80601f0160208091040260200160405190810160405280929190818152602001828054610c3e90611550565b8015610c8b5780601f10610c6057610100808354040283529160200191610c8b565b820191906000526020600020905b815481529060010190602001808311610c6e57829003601f168201915b5050505050905090565b600060011515600660003373ffffffffffffffffffffffffffffffffffffffff1673ffffffffffffffffffffffffffffffffffffffff16815260200190815260200160002060009054906101000a900460ff16151514610d2a576040517f08c379a0000000000000000000000000000000000000000000000000000000008152600401610d2190611aa8565b60405180910390fd5b600073ffffffffffffffffffffffffffffffffffffffff168373ffffffffffffffffffffffffffffffffffffffff1603610d99576040517f08c379a0000000000000000000000000000000000000000000000000000000008152600401610d9090611b3a565b60405180910390fd5b81600460008573ffffffffffffffffffffffffffffffffffffffff1673ffffffffffffffffffffffffffffffffffffffff168152602001908152602001600020541015610e1b576040517f08c379a0000000000000000000000000000000000000000000000000000000008152600401610e1290611ba6565b60405180910390fd5b816003541015610e60576040517f08c379a0000000000000000000000000000000000000000000000000000000008152600401610e5790611c12565b60405180910390fd5b81600460008573ffffffffffffffffffffffffffffffffffffffff1673ffffffffffffffffffffffffffffffffffffffff1681526020019081526020016000206000828254610eaf91906117d2565b925050819055508160036000828254610ec891906117d2565b92505081905550600073ffffffffffffffffffffffffffffffffffffffff168373ffffffffffffffffffffffffffffffffffffffff167fddf252ad1be2c89b69c2b068fc378daa952ba7f163c4a11628f55a4df523b3ef84604051610f2d91906113a3565b60405180910390a36001905092915050565b60008073ffffffffffffffffffffffffffffffffffffffff168373ffffffffffffffffffffffffffffffffffffffff1603610faf576040517f08c379a0000000000000000000000000000000000000000000000000000000008152600401610fa690611685565b60405180910390fd5b81600460003373ffffffffffffffffffffffffffffffffffffffff1673ffffffffffffffffffffffffffffffffffffffff168152602001908152602001600020541015611031576040517f08c379a000000000000000000000000000000000000000000000000000000000815260040161102890611c7e565b60405180910390fd5b81600460003373ffffffffffffffffffffffffffffffffffffffff1673ffffffffffffffffffffffffffffffffffffffff168152602001908152602001600020600082825461108091906117d2565b9250508190555081600460008573ffffffffffffffffffffffffffffffffffffffff1673ffffffffffffffffffffffffffffffffffffffff16815260200190815260200160002060008282546110d69190611806565b925050819055508273ffffffffffffffffffffffffffffffffffffffff163373ffffffffffffffffffffffffffffffffffffffff167fddf252ad1be2c89b69c2b068fc378daa952ba7f163c4a11628f55a4df523b3ef8460405161113a91906113a3565b60405180910390a36001905092915050565b6000600560008473ffffffffffffffffffffffffffffffffffffffff1673ffffffffffffffffffffffffffffffffffffffff16815260200190815260200160002060008373ffffffffffffffffffffffffffffffffffffffff1673ffffffffffffffffffffffffffffffffffffffff16815260200190815260200160002054905092915050565b600081519050919050565b600082825260208201905092915050565b60005b8381101561120d5780820151818401526020810190506111f2565b60008484015250505050565b6000601f19601f8301169050919050565b6000611235826111d3565b61123f81856111de565b935061124f8185602086016111ef565b61125881611219565b840191505092915050565b6000602082019050818103600083015261127d818461122a565b905092915050565b600080fd5b600073ffffffffffffffffffffffffffffffffffffffff82169050919050565b60006112b58261128a565b9050919050565b6112c5816112aa565b81146112d057600080fd5b50565b6000813590506112e2816112bc565b92915050565b6000819050919050565b6112fb816112e8565b811461130657600080fd5b50565b600081359050611318816112f2565b92915050565b6000806040838503121561133557611334611285565b5b6000611343858286016112d3565b925050602061135485828601611309565b9150509250929050565b60008115159050919050565b6113738161135e565b82525050565b600060208201905061138e600083018461136a565b92915050565b61139d816112e8565b82525050565b60006020820190506113b86000830184611394565b92915050565b6000806000606084860312156113d7576113d6611285565b5b60006113e5868287016112d3565b93505060206113f6868287016112d3565b925050604061140786828701611309565b9150509250925092565b600060ff82169050919050565b61142781611411565b82525050565b6000602082019050611442600083018461141e565b92915050565b6114518161135e565b811461145c57600080fd5b50565b60008135905061146e81611448565b92915050565b6000806040838503121561148b5761148a611285565b5b6000611499858286016112d3565b92505060206114aa8582860161145f565b9150509250929050565b6000602082840312156114ca576114c9611285565b5b60006114d8848285016112d3565b91505092915050565b600080604083850312156114f8576114f7611285565b5b6000611506858286016112d3565b9250506020611517858286016112d3565b9150509250929050565b7f4e487b7100000000000000000000000000000000000000000000000000000000600052602260045260246000fd5b6000600282049050600182168061156857607f821691505b60208210810361157b5761157a611521565b5b50919050565b7f596f75206d6179206e6f742063726561746520616e20616c6c6f77616e63652060008201527f666f7220746865207a65726f20616464726573732e0000000000000000000000602082015250565b60006115dd6035836111de565b91506115e882611581565b604082019050919050565b6000602082019050818103600083015261160c816115d0565b9050919050565b7f596f75206d6179206e6f74207472616e7366657220746f20746865207a65726f60008201527f20616464726573732e0000000000000000000000000000000000000000000000602082015250565b600061166f6029836111de565b915061167a82611613565b604082019050919050565b6000602082019050818103600083015261169e81611662565b9050919050565b7f596f7520617265206e6f7420617070726f76656420746f207472616e7366657260008201527f20746865736520646f696e6b732e000000000000000000000000000000000000602082015250565b6000611701602e836111de565b915061170c826116a5565b604082019050919050565b60006020820190508181036000830152611730816116f4565b9050919050565b7f53656e6465722062616c616e636520697320746f6f206c6f772e000000000000600082015250565b600061176d601a836111de565b915061177882611737565b602082019050919050565b6000602082019050818103600083015261179c81611760565b9050919050565b7f4e487b7100000000000000000000000000000000000000000000000000000000600052601160045260246000fd5b60006117dd826112e8565b91506117e8836112e8565b9250828203905081811115611800576117ff6117a3565b5b92915050565b6000611811826112e8565b915061181c836112e8565b9250828201905080821115611834576118336117a3565b5b92915050565b7f4f6e6c7920616e2061646d696e206d61792073657420726f6c65732e00000000600082015250565b6000611870601c836111de565b915061187b8261183a565b602082019050919050565b6000602082019050818103600083015261189f81611863565b9050919050565b7f596f75206d6179206e6f742061737369676e206120726f6c6520746f2074686560008201527f207a65726f20616464726573732e000000000000000000000000000000000000602082015250565b6000611902602e836111de565b915061190d826118a6565b604082019050919050565b60006020820190508181036000830152611931816118f5565b9050919050565b7f4f6e6c7920616e2061646d696e206d61792063726561746520746f6b656e732e600082015250565b600061196e6020836111de565b915061197982611938565b602082019050919050565b6000602082019050818103600083015261199d81611961565b9050919050565b7f596f75206d6179206e6f74206d696e7420746f6b656e7320746f20746865207a60008201527f65726f20616464726573732e0000000000000000000000000000000000000000602082015250565b6000611a00602c836111de565b9150611a0b826119a4565b604082019050919050565b60006020820190508181036000830152611a2f816119f3565b9050919050565b7f4f6e6c7920616e2061646d696e206d61792064657374726f7920746f6b656e7360008201527f2e00000000000000000000000000000000000000000000000000000000000000602082015250565b6000611a926021836111de565b9150611a9d82611a36565b604082019050919050565b60006020820190508181036000830152611ac181611a85565b9050919050565b7f596f75206d6179206e6f742064657374726f7920746f6b656e7320617373696760008201527f6e656420746f20746865207a65726f20616464726573732e0000000000000000602082015250565b6000611b246038836111de565b9150611b2f82611ac8565b604082019050919050565b60006020820190508181036000830152611b5381611b17565b9050919050565b7f4163636f756e742062616c616e636520697320746f6f206c6f772e0000000000600082015250565b6000611b90601b836111de565b9150611b9b82611b5a565b602082019050919050565b60006020820190508181036000830152611bbf81611b83565b9050919050565b7f546f74616c20737570706c7920697320746f6f206c6f772e0000000000000000600082015250565b6000611bfc6018836111de565b9150611c0782611bc6565b602082019050919050565b60006020820190508181036000830152611c2b81611bef565b9050919050565b7f596f75722062616c616e636520697320746f6f206c6f772e0000000000000000600082015250565b6000611c686018836111de565b9150611c7382611c32565b602082019050919050565b60006020820190508181036000830152611c9781611c5b565b905091905056fea2646970667358221220e0155df2f9fc0a193ec0452799f9dad83cbf8b0a8ccf81b680791594f9501c1864736f6c634300081b0033",
  "linkReferences": {},
  "deployedLinkReferences": {}
}